:0300000002089F54
:0C089F00787FE4F6D8FD75811A0208E6A7
:0C0A6E000A0BC0F9A4B0999282F88090A5
:1009B600C290D293D292D2912097037508012096C5
:1009C6000375080220950375080320940375080A29
:1009D600D293D292D290C2912097037508042096A2
:1009E6000375080520950375080620940375080B02
:1009F600C292D293D290D29120970375080720967F
:100A06000375080820950375080920940375080CDA
:100A1600C293D290D292D29120970375082A20963B
:100A260003E4F50820950375082320940375080D43
:010A3600229D
:100A3700E4FDFCC3ED9FEE6480F8EC6480985015EC
:100A4700E4FBFA0BBB00010AEB64644A70F50DBDC9
:050A570000010C80DE2F
:010A5C002277
:10080000AB07AA067C037DE812092B8E158F167C98
:10081000037DE8AF03AE0212092B7E007F64CFCDCB
:10082000CFCECCCE12092B8E198F1A7C007D64AFEF
:1008300003AE0212092B7E007F0ACFCDCFCECCCEE5
:1008400012092B8E098F0AAE02AF037C007D641261
:10085000092B7E007F0ACFCDCFCECCCE12092B8CB8
:10086000178D1875A001740B2518F8E6F5B07F0AEE
:100870007E00120A3775A002740B250AF8E6F5B05F
:10088000120A3775A004740B251AF8E6F5B0120A9F
:0F0890003775A008740B2516F8E6F5B0020A3785
:100A5D001209B6E508B401F87F017E001208008086
:010A6D00EF99
:1008AB00020A5DE493A3F8E493A34003F68001F2FC
:1008BB0008DFF48029E493A3F85407240CC8C3334E
:1008CB00C4540F4420C8834004F456800146F6DF1D
:1008DB00E4800B0102040810204080900A6EE47E35
:1008EB00019360BCA3FF543F30E509541FFEE49312
:1008FB00A360010ECF54C025E060A840B8E493A3D9
:10090B00FAE493A3F8E493A3C8C582C8CAC583CA03
:10091B00F0A3C8C582C8CAC583CADFE9DEE780BEBB
:010A7A00007B
:10092B00C2D5EC30E709B2D5E4C39DFDE49CFCEEE7
:10093B0030E715B2D5E4C39FFFE49EFE120961C3F5
:10094B00E49DFDE49CFC800312096130D507C3E4F0
:06095B009FFFE49EFE2256
:10096100BC000BBE0029EF8DF084FFADF022E4CC7A
:10097100F875F008EF2FFFEE33FEEC33FCEE9DEC43
:10098100984005FCEE9DFE0FD5F0E9E4CEFD22ED89
:10099100F8F5F0EE8420D21CFEADF075F008EF2FD3
:1009A100FFED33FD4007985006D5F0F222C398FDC4
:0509B1000FD5F0EA2261
:00000001FF
