:03000000020800F3
:0C080000787FE4F6D8FD7581740208478B
:10090D0008080102040810204080206410C3813CB7
:10091D003C3C3C813CFFE1DDDDC1BDBDC1FFC3BD44
:10092D00FDFDFDBDC3FFC1BDBDBDBDBDC1FFC1FD54
:10093D00FDE1FDFD81000000000000000000000051
:10094D00000000000000000000000000000000009A
:10095D00000000000000000000000000000000008A
:10096D00000000000000000000000000000000007A
:01097D000079
:10088C00C290D293D292D291209703757401209684
:10089C000375740220950375740320950375740A0F
:1008AC00D293D292D290C291209703757404209661
:1008BC000375740520950375740620950375740BE8
:1008CC00C292D293D290D29120970375740720963E
:1008DC000375740820950375740920950375740CC1
:1008EC00C293D290D292D29120970375742A2096FB
:1008FC0003E4F57420950375742320950375740D2A
:01090C0022C8
:1009C400E4FDFCC3ED9FEE6480F8EC64809850076E
:0709D4000DBD00010C80ECD9
:0109DB0022F9
:10097F00E4F59012088CE574B401F8E4FAFBC3EBCC
:10098F0094C8EA6480948050EA900000AF827408A3
:10099F002FF8E6F5A0AF8274102FF8E6F5B07F645C
:1009AF007E001209C4A3E5826408458370DE0BBB89
:0509BF0000010A80C9DF
:10080C0002097FE493A3F8E493A34003F68001F27A
:10081C0008DFF48029E493A3F85407240CC8C333ED
:10082C00C4540F4420C8834004F456800146F6DFBC
:10083C00E4800B010204081020408090090DE47E36
:10084C00019360BCA3FF543F30E509541FFEE493B1
:10085C00A360010ECF54C025E060A840B8E493A378
:10086C00FAE493A3F8E493A3C8C582C8CAC583CAA3
:10087C00F0A3C8C582C8CAC583CADFE9DEE780BE5B
:01097E000078
:00000001FF
