:030000000208CD26
:0C08CD00787FE4F6D8FD75810702080072
:0408B7007FA07E861A
:1008BB00E4FDFCC3ED9FEC9E50070DBD00010C80C9
:0108CB00F23A
:0108CC002209
:1008000075A0FF7590FF309013E4FAFBB2A01208B8
:10081000B70BBB00010AEB64024A70F0309113E49D
:10082000FAFBB2A11208B70BBB00010AEB64044A41
:1008300070F0309213E4FAFBB2A21208B70BBB00BF
:10084000010AEB64064A70F0309313E4FAFBB2A39A
:100850001208B70BBB00010AEB64084A70F0309431
:1008600013E4FAFBB2A41208B70BBB00010AEB6455
:100870000A4A70F0309513E4FAFBB2A51208B70BE0
:10088000BB00010AEB640C4A70F0309613E4FAFBEB
:10089000B2A61208B70BBB00010AEB640E4A70F057
:1008A000309713E4FAFBB2A71208B70BBB00010A9A
:0608B000EB64104A70F039
:0108B600221F
:00000001FF
